:060000000A128A110E280D
:10000800FE00030EF0000A08F1007F08F2000A1251
:100018008A1170280A128A11112883132A30FD00C8
:100028000030FE00A830FF00203084000A128A1138
:1000380099200A128A11B401F70183010A128A1160
:1000480025282A3084002030F3000408F4000A3000
:10005800F5007308840083130008F600F30A740897
:10006800840076088000F40AF50B2D283C308312B2
:1000780003138F00AF308E0090121012901590105D
:10008800831603130C14831203130C100B178B170E
:1000980006128316031306128312031388018316AC
:1000A8000313880183120313051183160313051123
:1000B800831203131014051534082A3E840000081F
:1000C80088000A303402031C6A286B286028B401AF
:1000D80060280A128A110E28831203130C1C752833
:1000E80076288C280130FF007F08F7071430770640
:1000F800031D7F2880288728103086060130FF00DE
:100108007F08B407F7013C308F00AF308E000C1029
:100118007208FF0071088A00700E8300FE0E7E0EC2
:1001280009007E088A007F0882000A128A11952039
:100138000A128A118000840A04087D060319003413
:10014800FF0A0319FE0A99283F3406345B344F34FA
:0C01580066346D347D3407347F346F341E
:02400E00FA3F77
:00000001FF
