:060000000A128A110E280D
:10000800FE00030EF0000A08F1007F08F2000A1251
:100018008A113E280A128A111128F30183010A1253
:100028008A1116288312031310108E018F01901263
:100038001012901510119010101097121712971592
:10004800171197141714C3309600503095008B176A
:100058000B17831603130C1583120313061083164C
:100068000313061007118312031310143A280A12F7
:100078008A110E28831203130C1D43284428522882
:100088000130FF007F08F3070A307306031D4D286F
:100098004E28512801308606F3010C117208FF0022
:0E00A80071088A00700E8300FE0E7E0E0900A5
:02400E007A3FF7
:00000001FF
