:060000000A128A11FC2F18
:100E5C00F0007008831203178D00831603178C1390
:100E6C000C14831203170C08F10071080800F10030
:100E7C00831603178C18432F442F3E2F71088312AF
:100E8C0003178D0070088C00831603178C130C1538
:100E9C008B1355308D00AA308D008C148B170C11D0
:100EAC008C1008000F308316031386008312031373
:100EBC008801831603138801F501831203130618A6
:100ECC00682F692F822F0330F00075080A128A11DF
:100EDC003D270A128A110130FF007F08F507033005
:100EEC00F4008A30F3005530F200F20B7B2FF30B39
:100EFC007B2FF40B7B2F822F831203138618872FE3
:100F0C00882FA12F0530F00075080A128A113D2791
:100F1C000A128A110130FF007F08F5070330F40034
:100F2C008A30F3005530F200F20B9A2FF30B9A2F04
:100F3C00F40B9A2FA12F831203130619A62FA72F98
:100F4C00C02F0730F00075080A128A113D270A12CB
:100F5C008A110130FF007F08F5070330F4008A3056
:100F6C00F3005530F200F20BB92FF30BB92FF40B41
:100F7C00B92FC02F831203138619C52FC62F632FC9
:100F8C00F501F22F75080A128A112E270A128A11FE
:100F9C008312031388000130FF007F08F507083027
:100FAC00F4009D30F3000530F200F20BDB2FF30B55
:100FBC00DB2FF40BDB2FE22F83120313880103309A
:100FCC00F4008A30F3005530F200F20BEB2FF30BE8
:100FDC00EB2FF40BEB2FF22F03307506031DF72FBD
:100FEC00F82FC82F622F0A128A11002883010A12C7
:040FFC008A11582FCF
:02400E007A3FF7
:00000001FF
