:060000000A128A11EE2F26
:100F10003F3406345B344F3466346D347D340734EB
:100F20007F346F347E088A007F0882000A128A119B
:100F300092270A128A118000840A04087D06031988
:100F40000034FF0A0319FE0A962F203084002B304C
:100F5000F0000408F1000A30F200700884008313E6
:100F60000008F300F00A7108840073088000F10A99
:100F7000F20BAD2F83120313AA018801831603130A
:100F800088018312031305118316031305118312BD
:100F9000031305152A08203E8400831300088800E7
:100FA0000630F2001330F100AD30F000F00BD62F18
:100FB000F10BD62FF20BD62FDD2F0130FF007F086B
:100FC00083120313AA070A302A02031CE82FE92F11
:100FD000CA2FAA01CA2F0A128A110028831335309A
:100FE000FD000730FE008830FF002B3084000A121D
:100FF0008A1196270A128A1183010A128A11A52FD3
:02400E00793FF8
:00000001FF
