:060000000A128A110C280F
:10000800FE00030EF0000A08F1000A128A114528C2
:100018000A128A110F2883010A128A1113288312DF
:1000280003138E018F019012101290151011901465
:1000380010149712171297111715971017148B177A
:100048000B17831603130C158312031388018316E9
:100058000313880183120313860183160313860191
:10006800071507148312071C3A283B283F28071C4A
:100078003E283F283B280E08860036280A128A1197
:100088000C28831203130C1D4A284B284E281508E8
:1000980088000C1171088A00700E8300FE0E7E0E17
:0200A80009004D
:02400E007A3FF7
:00000001FF
