:060000000A128A11FC2F18
:100F3800831603138801FF308312031388000710F8
:100F4800871483160313071087100530F2000F303B
:100F5800F100F130F000F00BAF2FF10BAF2FF20BD7
:100F6800AF2F831203130714871088010530F2008E
:100F78000F30F100F130F000F00BC02FF10BC02F53
:100F8800F20BC02F0130831203138800013087064B
:100F980002308706F3010B30F2002630F1005D3095
:100FA800F000F00BD52FF10BD52FF20BD52FDC2F3E
:100FB800831203130808F000700788000130FF004F
:100FC8007F08F30708307302031CEB2FEC2FCF2F99
:100FD8002930F2009630F1007F30F000F00BF22F4C
:100FE800F10BF22FF20BF22FC62F0A128A110028EA
:080FF80083010A128A119C2FEB
:02400E007A3FF7
:00000001FF
