:060000000A128A110E280D
:10000800FE00030EF0000A08F1007F08F2000A1251
:100018008A110A2D0A128A11112883120313DC018E
:10002800DD0183010A128A11E829831203132D08BE
:100038008039B7002D08AE002E07BE00AC1F25285A
:10004800262827283E143E0803192B282C283C284C
:100058003E0A031D3028312839280030AD00003011
:10006800AC000030AB000030AA00AC17AD0144284A
:100078000030AD000030AC000030AB000030AA000A
:1000880029088039FF007F08B7062908AE002E0727
:10009800BF00A81F5028512852283F143F080319B1
:1000A8005628572867283F0A031D5B285C286428C0
:1000B8000030A9000030A8000030A7000030A600DA
:1000C800A817A9016F280030A9000030A800003047
:1000D800A7000030A6002908280427042604031DC9
:1000E8007628772890280030AD000030AC0000302A
:1000F800AB000030AA008030AC047F30AD04370874
:10010800FF007F08AD042D08A9002C08A8002B08C3
:10011800A7002A08A600E7293E08031D9428952869
:100128009E280030A9000030A8000030A700003049
:10013800A600E7293E08AE00AF012F08B1003F082E
:100148002E02B000031CB10330087F3EB80031080E
:100158000318013E003EB9002D08B6002C08B50072
:100168002B08B4002A08B3000030AD000030AC0002
:100178000030AB000030AA000030BD000030BC00E9
:100188000030BB000030BA00BF0114293F08031932
:10019800CE28CF28EF280130AE000310B30DB40DE0
:1001A800B50DB60DAE0BD1280130AE000310AA0D67
:1001B800AB0DAC0DAD0DAE0BDA28BD1FE428E5285C
:1001C800E6282A140130AE000310BA0DBB0DBC0D91
:1001D800BD0DAE0BE82829083602031DFD282808A6
:1001E8003502031DFD2827083402031DFD282608B3
:1001F8003302031C0029012910293D172608B302E0
:100208002708031C270FB4022808031C280FB5026F
:100218002908031C290FB6020130FF007F08BF0719
:100228001A303F02031C19291A29CA28360835042E
:100238003404330403192129222941293A14412974
:100248000130AE000310AA0DAB0DAC0DAD0DAE0B19
:100258002629BD1F3029312932292A140130AE0040
:100268000310BA0DBB0DBC0DBD0DAE0B3429FF300C
:10027800B8070318B90AFF30B907AC1F4429452944
:100288002429BF01BD1F49294A296629FF303A059B
:10029800AE00FF303B05AF00FF303C05B0007F30BB
:1002A8003D05B100310830042F042E0403195D29DF
:1002B8005E296129BF01BF0A66292A1C64296529AC
:1002C80066295E293F0803196A296B299C29013090
:1002D800AA07003003180130AB07003003180130BB
:1002E800AC07003003180130AD072D1C7C297D298F
:1002F8009C292A08AE002B08AF002C08B0002D0856
:10030800B1000130B200310DB10CB00CAF0CAE0C25
:10031800B20B87293108AD003008AC002F08AB00BC
:100328002E08AA000130B8070318B90A0030B90727
:100338003908803AFF0080307F02031DA529FF306D
:100348003802031CA829A929B729FF3083120313EF
:10035800B8000030B9000030AD000030AC0000300B
:10036800AB000030AA00831203133908803AFF005B
:1003780080307F02031DC229013038020318C529C5
:10038800C629D32983120313B801B9010030AD007F
:100398000030AC000030AB000030AA00B701831277
:1003A80003133808BE003E1CDA29DB29DD29AC1707
:1003B800E1297F30FF007F08AC053E08AE0003103E
:1003C8002E0CAD00832808008312031386018316C0
:1003D80003138601831203130711831603130711EE
:1003E8008715831203130810831603130810FF30B0
:1003F800831203138600063083120313D9001330C7
:10040800D800AD30D700D70B072AD80B072AD90B4D
:10041800072A8312031386018E018F019010101290
:100428009012FA308316031392008312031391017A
:1004380012119215121692161217121492148B1783
:100448000B17831603138C1414308312CF0000305B
:10045800D0000A128A11B0230A128A1183120313D8
:100468004B08D2004A08D1000A128A11A1240A12A4
:100478008A11831203135008DB004F08DA00C12ADF
:100488008601413083120313D800ED30D700D70B13
:100498004B2AD80B4B2A502AE32A013086004130D8
:1004A80083120313D800ED30D700D70B592AD80B85
:1004B800592A5E2AE32A0330860041308312031347
:1004C800D800ED30D700D70B672AD80B672A6C2ADB
:1004D800E32A07308600413083120313D800ED3039
:1004E800D700D70B752AD80B752A7A2AE32A0F303A
:1004F8008600413083120313D800ED30D700D70BA4
:10050800832AD80B832A882AE32A1F3086004130A1
:1005180083120313D800ED30D700D70B912AD80BDC
:10052800912A962AE32A3F3086004130831203132A
:10053800D800ED30D700D70B9F2AD80B9F2AA42AC2
:10054800E32A7F308600413083120313D800ED3050
:10055800D700D70BAD2AD80BAD2AB22AE32AFF3031
:100568008600413083120313D800ED30D700D70B33
:10057800BB2AD80BBB2AC02AE32A5B08003A031916
:10058800C62A442A5A08003A0319442A013A031988
:10059800512A033A03195F2A013A03196D2A073AC7
:1005A80003197B2A013A0319892A033A0319972A5E
:1005B800013A0319A52A0F3A0319B32A442A4E30DF
:1005C80083120313D800EA30D700D70BE92AD80BD7
:1005D800E92A00000130831203138806282A0A1228
:1005E8008A110E2883120313A00020080319FD2A7C
:1005F800FE2A122BF61F012B022B122B7309A200C5
:100608007409A3007509A4007609A500A20A0319B4
:10061800A30A0319A40A0319A50A1A2B7608A50028
:100628007508A4007408A3007308A200760875046E
:1006380074047304031D212B222B2B2B0030F6008E
:100648000030F5000030F4000030F300AF2B963096
:10065800A1003B2B0130FF007F08A10701300310E8
:10066800A50CA40CA30CA20CFF3E031D332BFE30DB
:100678002505031D402B412B2E2B5D2B0130FF0040
:100688007F08A1070130A207003003180130A30733
:10069800003003180130A407003003180130A50703
:1006A80001300310A50CA40CA30CA20CFF3E031DE3
:1006B800552BFF302505031D622B632B422B6F2B17
:1006C8000130A1020130F7000310A20DA30DA40D03
:1006D800A50DF70B682BA41B722B732B792B0230FB
:1006E80021020318782B792B642B21187C2B7D2B66
:1006F800852BFF30A205FF30A3057F30A405FF300E
:10070800A5050310A10C2108F700F801F901FA0169
:1007180018300310F70DF80DF90DFA0DFF3E031D03
:100728008D2B7708A2047808A3047908A4047A0812
:10073800A50420080319A12BA22BA72BF61FA52B74
:10074800A62BA72BA5172508F6002408F5002308D3
:10075800F4002208F30008008312031310108E011E
:100768008F0112119101DD01071502308312031365
:10077800CC00CC0BBD2B00008312031307111215FC
:100788008719C72BC82BCD2B5C080319CC2BCD2B75
:10079800C42B10145C080319D22BD32BDB2B10109D
:1007A8001211DC01FF30CA00FF30CB00282C871D56
:1007B800DE2BDF2BE42B5C080319E32BE42BDB2B6C
:1007C800101012115C080319EA2BEB2BEC2BD52B1C
:1007D8000E08F3000F08F400F501F60100300A12C4
:1007E8008A11F6220A128A11760883120313AD00C1
:1007F8007508AC007408AB007308AA004230A90061
:100808006B30A8004730A700AE30A6000A128A1144
:1008180019200A128A11831203132908C300280811
:10082800C2002708C1002608C0000A128A1129241C
:100838000A128A11831203134108CE004008CD0022
:100848004E08CB004D08CA0008000310831203139A
:10085800420D430DC9004908031D332C342C3D2C8F
:100868000030C3000030C2000030C1000030C000BA
:10087800A02C4008C4004108C5004208C60043082F
:10088800C7001F300310C70CC60CC50CC40CFF3EB4
:10089800031D462C4408C800C217FF30C005FF30AE
:1008A800C105FF30C2050030C3059630C902C91F13
:1008B8005E2C5F2C792C4908803A973E0318652CEA
:1008C800662C672C342C01300310C30CC20CC10CED
:1008D800C00CFF3E031D682C0130FF007F08C907CC
:1008E800031D772C782C672C902C20304902031C90
:1008F8007E2C7F2C8B2C342C0130C4000310C00DAF
:10090800C10DC20DC30DC40B822C0130C9024908A8
:10091800031D8F2C902C802C48080319942C952C9F
:10092800A02CC009C109C209C309C00A0319C10A18
:100938000319C20A0319C30A080083120313D40156
:10094800D01FA72CA82CAF2CCF09D009CF0A031988
:10095800D00AD401D40AD21FB22CB32CBC2CD10992
:10096800D209D10A0319D20A0130FF007F08D40640
:10097800D501D6014F0850040319C32CC42CFB2CF5
:10098800D301D30AD22C01300310CF0DD00DFF3E76
:10099800031DC82C0130FF007F08D307D01FD52CBA
:1009A800D62CC72C01300310D50DD60DFF3E031DE4
:1009B800D72C50085202031DE32C4F085102031C88
:1009C800E62CE72CEE2C4F08D1025008031CD2036A
:1009D800D202551401300310D00CCF0CFF3E031D7A
:1009E800EF2C0130D302031DFA2CFB2CD62C540813
:1009F8000319FF2C002D052DD509D609D50A031991
:100A0800D60A5608D0005508CF00080083120313F1
:100A18008C1C0F2D102D1E2D0130FF007F08DD07C7
:100A280007305D06031D192D1A2D1D2DDC01DC0A6A
:100A3800DD018C107208FF0071088A00700E8300B7
:060A4800FE0E7E0E090007
:02400E007A3FF7
:00000001FF
