:060000000A128A110C280F
:10000800FE00030EF0000A08F1000A128A114228C5
:100018000A128A110F2883010A128A1113288312DF
:100028000313861006118316031386100611011395
:100038000B168B178312031386140630F400133043
:10004800F300AD30F200F20B2728F30B2728F40B4E
:1000580027282E288312031386100630F400133045
:10006800F300AD30F200F20B3728F30B3728F40B0E
:1000780037283E281E280A128A110C288B1C45286E
:1000880046284B2804308312031386068B10710808
:0C0098008A00700E8300FE0E7E0E090030
:02400E007A3FF7
:00000001FF
