:060000000A128A11FC2F18
:100E4200F3018312031306150530F000F00B272F70
:100E5200831203130611F101F201831203138610A8
:100E62000530F000F00B332F7308F0007007F30029
:100E720083120313061C3E2F3F2F422F73080138A3
:100E8200F30086140530F000F00B452F0130F10716
:100E92000318F20A0030F2077208803AFF0080302D
:100EA2007F02031D562F08307102031C592F5A2F3F
:100EB2002E2F73080800831203130710871083165E
:100EC2000313071087108312031386140611861169
:100ED200061201308316031386008312031388015E
:100EE200831603138801FF30831203138800153021
:100EF200F6004B30F500BE30F400F40B7E2FF50BFC
:100F02007E2FF60B7E2F00008312031388010B3015
:100F1200F6002630F5005D30F400F40B8E2FF50B51
:100F22008E2FF60B8E2F952F831203130616F801C0
:100F320086100530F400F40B9C2F831203138614E1
:100F42000130FF007F08F80708307802031CAA2F3F
:100F5200AB2F992F0612F9018312031307140A12F9
:100F62008A1121270A128A11F700770883120313C4
:100F7200880086150530F400F40BBD2F831203138D
:100F820086110530F400F40BC42F831203130710EB
:100F92006830F500E430F400F40BCD2FF50BCD2FC3
:100FA20000000130FF007F08F90704307902031CBA
:100FB200DB2FDC2FAD2F8312031387148801061653
:100FC2000530F400F40BE32F8312031306120530ED
:100FD200F400F40BEA2F2A30F5008D30F400F40B04
:100FE200F02FF50BF02FF52F831203138710AC2F80
:0E0FF2000A128A11002883010A128A115C2F4C
:02400E007A3FF7
:00000001FF
