:060000000A128A11FC2F18
:100EBA004130831203139F008030831603139F006F
:100ECA0008008312031397151715831603130711C6
:100EDA007C30920083120313121492101215080028
:100EEA000430780200300319770203187D2F7E2F11
:100EFA00952F7718812F852F831203131716882FA2
:100F0A0083120313171297127808FA007708F90068
:100F1A000310FA0CF90C0310FA0CF90C7908950075
:100F2A0008000A128A1166270A128A110A128A11FD
:100F3A005D270A128A1100300A128A11BA270A1288
:100F4A008A117108F8007008F7000A128A117527C9
:100F5A000A128A11C730FB00B22FFB0BB12FB52F33
:100F6A00B62FA02F0A128A110028F600083076023E
:100F7A00031CC02FC12FC42FF001F101FB2FC53074
:100F8A00FF007F08831203139F057608F2000230E0
:100F9A000310F20DFF3E031DCD2F0310720DFF004B
:100FAA007F089F040930F200F20BD92FDC2F83123D
:100FBA0003131F151F19E22FE32FDF2F1E08F2005C
:100FCA00F3010730FF000310F20DF30DFF0BE82FBA
:100FDA00831603131E087207F40000300318013049
:100FEA007307F5007408F0007508F1000800830122
:060FFA000A128A11962F75
:02400E007A3FF7
:00000001FF
