:060000000A128A11FC2F18
:100E9E0083120313880108000A308312031388009B
:100EAE0008000130831203138806023088060430CE
:100EBE0088060830880608007018662F6A2F83127D
:100ECE00031397166D2F83120313971217127108BF
:100EDE00F3007008F2000310F30CF20C0310F30C85
:100EEE00F20C72089500080083120313121392126B
:100EFE0012129211121192101214910197151715C8
:100F0E007C308316031392000711FF308600831284
:100F1E00031388018316031388018B170B17FA30FE
:100F2E00F0000030F1000A128A1163270A128A11AA
:100F3E00831203131215831203138619A72FA82FDA
:100F4E00B12FF430F0000130F1000A128A1163273C
:100F5E000A128A1183120313061AB62FB72FC02F47
:100F6E00FA30F0000030F1000A128A1163270A12DB
:100F7E008A1183120313861AC52FC62FCE2F003067
:100F8E00F000F1000A128A1163270A128A118312E5
:100F9E0003130618D32FD42FD92F0A128A115827CC
:100FAE000A128A11831203130619DE2FDF2FE42F84
:100FBE000A128A1153270A128A11831203138618F2
:100FCE00E92FEA2FEF2F0A128A114F270A128A11E0
:100FDE008230F500DD30F400F40BF32FF50BF32F18
:100FEE00F82FA22F0A128A11002883010A128A11E1
:020FFE007B2F47
:02400E007A3FF7
:00000001FF
