:060000000A128A11FC2F18
:100EE40083120313860183160313860107148714E0
:100EF400F601B22FF201F3010130F000760A842FDB
:100F04000310F00DFF3E031D822F7008831203139C
:100F140086002130F1007630F000F00B8F2FF10BBA
:100F24008F2F00000130FF007F08F607043076069B
:100F3400031D9D2F9E2F9F2FF6010130F2070318EA
:100F4400F30A0030F3077308803AFF0080307F0211
:100F5400031DAE2F04307202031CB12FB22F7E2F5B
:100F6400831203130718B72FB82F7C2FF22FF40125
:100F7400F501760AFF000830F0000030F100C52FBB
:100F8400710DF10CF00CFF0BC22F700883120313C8
:100F940086002130F1007630F000F00BCF2FF10BFA
:100FA400CF2F00000130FF007F08F60704307606DB
:100FB400031DDD2FDE2FDF2FF6010130F4070318A8
:100FC400F50A0030F5077508803AFF0080307F028B
:100FD400031DEE2F04307402031CF12FF22FBB2FDC
:100FE400831203138718F72FF82FB92FB22F0A1281
:0C0FF4008A11002883010A128A11722F52
:02400E00793FF8
:00000001FF
