:060000000A128A11FC2F18
:100ECA000430710200300319700203186D2F6E2F5F
:100EDA00852F7018712F752F831203131716782F09
:100EEA0083120313171297127108F3007008F200A5
:100EFA000310F30CF20C0310F30CF20C72089500B9
:100F0A000800831203139715171583160313071185
:100F1A00920183120313121492101215F601F60AA3
:100F2A00F701F801AE2F7808F1007708F0000A12ED
:100F3A008A1165270A128A110130F7070318F80A7D
:100F4A000030F807C730F400AA2FF40BA92FAD2FF1
:100F5A00AE2F01307802F43003197702031CB62F42
:100F6A00B72F982FCE2F7808F1007708F0000A12D1
:100F7A008A1165270A128A110130F7020030031C10
:100F8A00F803F802C730F400CA2FF40BC92FCD2F8B
:100F9A00CE2F77087804031DD32FD42FB82F033010
:100FAA00F5009730F400F40BD82FF50BD82FDD2F6E
:100FBA0076080319E12FE22FE92F0130FF007F089D
:100FCA00831603139207ED2F01308316031392023F
:100FDA00120A031DF12FF22FF32FF6011208031D37
:100FEA00F72FF82F952F932F0A128A1100288301C1
:060FFA000A128A11862F85
:02400E007A3FF7
:00000001FF
